{
  "contractName": "DeepDiveHub",
  "abi": [
    {
      "inputs": [
        {
          "internalType": "address",
          "name": "_tokenAddress",
          "type": "address"
        }
      ],
      "stateMutability": "nonpayable",
      "type": "constructor"
    },
    {
      "anonymous": false,
      "inputs": [
        {
          "indexed": true,
          "internalType": "address",
          "name": "grantee",
          "type": "address"
        },
        {
          "indexed": false,
          "internalType": "uint256",
          "name": "amount",
          "type": "uint256"
        }
      ],
      "name": "Deposit",
      "type": "event"
    },
    {
      "anonymous": false,
      "inputs": [
        {
          "indexed": true,
          "internalType": "address",
          "name": "previousOwner",
          "type": "address"
        },
        {
          "indexed": true,
          "internalType": "address",
          "name": "newOwner",
          "type": "address"
        }
      ],
      "name": "OwnershipTransferred",
      "type": "event"
    },
    {
      "anonymous": false,
      "inputs": [
        {
          "indexed": true,
          "internalType": "address",
          "name": "grantee",
          "type": "address"
        },
        {
          "indexed": false,
          "internalType": "uint256",
          "name": "amount",
          "type": "uint256"
        }
      ],
      "name": "Withdraw",
      "type": "event"
    },
    {
      "anonymous": false,
      "inputs": [
        {
          "indexed": true,
          "internalType": "address",
          "name": "grantee",
          "type": "address"
        },
        {
          "indexed": false,
          "internalType": "uint256",
          "name": "amount",
          "type": "uint256"
        }
      ],
      "name": "WithdrawToAdmin",
      "type": "event"
    },
    {
      "inputs": [
        {
          "internalType": "address",
          "name": "",
          "type": "address"
        }
      ],
      "name": "balances",
      "outputs": [
        {
          "internalType": "uint256",
          "name": "",
          "type": "uint256"
        }
      ],
      "stateMutability": "view",
      "type": "function",
      "constant": true
    },
    {
      "inputs": [],
      "name": "owner",
      "outputs": [
        {
          "internalType": "address",
          "name": "",
          "type": "address"
        }
      ],
      "stateMutability": "view",
      "type": "function",
      "constant": true
    },
    {
      "inputs": [],
      "name": "renounceOwnership",
      "outputs": [],
      "stateMutability": "nonpayable",
      "type": "function"
    },
    {
      "inputs": [],
      "name": "token",
      "outputs": [
        {
          "internalType": "contract IERC20",
          "name": "",
          "type": "address"
        }
      ],
      "stateMutability": "view",
      "type": "function",
      "constant": true
    },
    {
      "inputs": [
        {
          "internalType": "address",
          "name": "newOwner",
          "type": "address"
        }
      ],
      "name": "transferOwnership",
      "outputs": [],
      "stateMutability": "nonpayable",
      "type": "function"
    },
    {
      "inputs": [
        {
          "internalType": "uint256",
          "name": "amount",
          "type": "uint256"
        },
        {
          "internalType": "address",
          "name": "grantee",
          "type": "address"
        }
      ],
      "name": "deposit",
      "outputs": [],
      "stateMutability": "nonpayable",
      "type": "function"
    },
    {
      "inputs": [
        {
          "internalType": "uint256",
          "name": "amount",
          "type": "uint256"
        }
      ],
      "name": "withdraw",
      "outputs": [],
      "stateMutability": "nonpayable",
      "type": "function"
    },
    {
      "inputs": [
        {
          "internalType": "uint256",
          "name": "amount",
          "type": "uint256"
        },
        {
          "internalType": "address",
          "name": "grantee",
          "type": "address"
        }
      ],
      "name": "withdrawToAdmin",
      "outputs": [],
      "stateMutability": "nonpayable",
      "type": "function"
    },
    {
      "inputs": [
        {
          "internalType": "address",
          "name": "account",
          "type": "address"
        }
      ],
      "name": "getBalance",
      "outputs": [
        {
          "internalType": "uint256",
          "name": "",
          "type": "uint256"
        }
      ],
      "stateMutability": "view",
      "type": "function",
      "constant": true
    }
  ],
  "bytecode": "0x60806040523480156200001157600080fd5b5060405162001350380380620013508339818101604052810190620000379190620001e7565b6200006962000054620000b1640100000000026401000000009004565b620000b9640100000000026401000000009004565b80600160006101000a81548173ffffffffffffffffffffffffffffffffffffffff021916908373ffffffffffffffffffffffffffffffffffffffff1602179055505062000219565b600033905090565b60008060009054906101000a900473ffffffffffffffffffffffffffffffffffffffff169050816000806101000a81548173ffffffffffffffffffffffffffffffffffffffff021916908373ffffffffffffffffffffffffffffffffffffffff1602179055508173ffffffffffffffffffffffffffffffffffffffff168173ffffffffffffffffffffffffffffffffffffffff167f8be0079c531659141344cd1fd0a4f28419497f9722a3daafe3b4186f6b6457e060405160405180910390a35050565b600080fd5b600073ffffffffffffffffffffffffffffffffffffffff82169050919050565b6000620001af8262000182565b9050919050565b620001c181620001a2565b8114620001cd57600080fd5b50565b600081519050620001e181620001b6565b92915050565b6000602082840312156200020057620001ff6200017d565b5b60006200021084828501620001d0565b91505092915050565b61112780620002296000396000f3fe608060405234801561001057600080fd5b50600436106100b0576000357c010000000000000000000000000000000000000000000000000000000090048063715018a611610083578063715018a6146101395780638da5cb5b14610143578063f2fde38b14610161578063f8b2cb4f1461017d578063fc0c546a146101ad576100b0565b806327e235e3146100b55780632db57ba8146100e55780632e1a7d4d146101015780636e553f651461011d575b600080fd5b6100cf60048036038101906100ca9190610b7e565b6101cb565b6040516100dc9190610bc4565b60405180910390f35b6100ff60048036038101906100fa9190610c0b565b6101e3565b005b61011b60048036038101906101169190610c4b565b610453565b005b61013760048036038101906101329190610c0b565b6106ba565b005b6101416108a2565b005b61014b6108b6565b6040516101589190610c87565b60405180910390f35b61017b60048036038101906101769190610b7e565b6108df565b005b61019760048036038101906101929190610b7e565b610962565b6040516101a49190610bc4565b60405180910390f35b6101b56109ab565b6040516101c29190610d01565b60405180910390f35b60026020528060005260406000206000915090505481565b6101eb6109d1565b6000821161022e576040517f08c379a000000000000000000000000000000000000000000000000000000000815260040161022590610d9f565b60405180910390fd5b81600260008373ffffffffffffffffffffffffffffffffffffffff1673ffffffffffffffffffffffffffffffffffffffff1681526020019081526020016000205410156102b0576040517f08c379a00000000000000000000000000000000000000000000000000000000081526004016102a790610e0b565b60405180910390fd5b81600260008373ffffffffffffffffffffffffffffffffffffffff1673ffffffffffffffffffffffffffffffffffffffff16815260200190815260200160002060008282546102ff9190610e5a565b92505081905550600160009054906101000a900473ffffffffffffffffffffffffffffffffffffffff1673ffffffffffffffffffffffffffffffffffffffff1663a9059cbb33846040518363ffffffff167c010000000000000000000000000000000000000000000000000000000002815260040161037f929190610e8e565b6020604051808303816000875af115801561039e573d6000803e3d6000fd5b505050506040513d601f19601f820116820180604052508101906103c29190610eef565b610401576040517f08c379a00000000000000000000000000000000000000000000000000000000081526004016103f890610f68565b60405180910390fd5b8073ffffffffffffffffffffffffffffffffffffffff167fbb05458e7da2c1051d789388f783450df1c81402cfb52fb5ea8928f7ba66dfa8836040516104479190610bc4565b60405180910390a25050565b60008111610496576040517f08c379a000000000000000000000000000000000000000000000000000000000815260040161048d90610d9f565b60405180910390fd5b80600260003373ffffffffffffffffffffffffffffffffffffffff1673ffffffffffffffffffffffffffffffffffffffff168152602001908152602001600020541015610518576040517f08c379a000000000000000000000000000000000000000000000000000000000815260040161050f90610e0b565b60405180910390fd5b80600260003373ffffffffffffffffffffffffffffffffffffffff1673ffffffffffffffffffffffffffffffffffffffff16815260200190815260200160002060008282546105679190610e5a565b92505081905550600160009054906101000a900473ffffffffffffffffffffffffffffffffffffffff1673ffffffffffffffffffffffffffffffffffffffff1663a9059cbb33836040518363ffffffff167c01000000000000000000000000000000000000000000000000000000000281526004016105e7929190610e8e565b6020604051808303816000875af1158015610606573d6000803e3d6000fd5b505050506040513d601f19601f8201168201806040525081019061062a9190610eef565b610669576040517f08c379a000000000000000000000000000000000000000000000000000000000815260040161066090610f68565b60405180910390fd5b3373ffffffffffffffffffffffffffffffffffffffff167f884edad9ce6fa2440d8a54cc123490eb96d2768479d49ff9c7366125a9424364826040516106af9190610bc4565b60405180910390a250565b600082116106fd576040517f08c379a00000000000000000000000000000000000000000000000000000000081526004016106f490610d9f565b60405180910390fd5b600160009054906101000a900473ffffffffffffffffffffffffffffffffffffffff1673ffffffffffffffffffffffffffffffffffffffff166323b872dd3330856040518463ffffffff167c010000000000000000000000000000000000000000000000000000000002815260040161077893929190610f88565b6020604051808303816000875af1158015610797573d6000803e3d6000fd5b505050506040513d601f19601f820116820180604052508101906107bb9190610eef565b6107fa576040517f08c379a00000000000000000000000000000000000000000000000000000000081526004016107f190610f68565b60405180910390fd5b81600260008373ffffffffffffffffffffffffffffffffffffffff1673ffffffffffffffffffffffffffffffffffffffff16815260200190815260200160002060008282546108499190610fbf565b925050819055508073ffffffffffffffffffffffffffffffffffffffff167fe1fffcc4923d04b559f4d29a8bfc6cda04eb5b0d3c460751c2402c5c5cc9109c836040516108969190610bc4565b60405180910390a25050565b6108aa6109d1565b6108b46000610a4f565b565b60008060009054906101000a900473ffffffffffffffffffffffffffffffffffffffff16905090565b6108e76109d1565b600073ffffffffffffffffffffffffffffffffffffffff168173ffffffffffffffffffffffffffffffffffffffff1603610956576040517f08c379a000000000000000000000000000000000000000000000000000000000815260040161094d90611065565b60405180910390fd5b61095f81610a4f565b50565b6000600260008373ffffffffffffffffffffffffffffffffffffffff1673ffffffffffffffffffffffffffffffffffffffff168152602001908152602001600020549050919050565b600160009054906101000a900473ffffffffffffffffffffffffffffffffffffffff1681565b6109d9610b13565b73ffffffffffffffffffffffffffffffffffffffff166109f76108b6565b73ffffffffffffffffffffffffffffffffffffffff1614610a4d576040517f08c379a0000000000000000000000000000000000000000000000000000000008152600401610a44906110d1565b60405180910390fd5b565b60008060009054906101000a900473ffffffffffffffffffffffffffffffffffffffff169050816000806101000a81548173ffffffffffffffffffffffffffffffffffffffff021916908373ffffffffffffffffffffffffffffffffffffffff1602179055508173ffffffffffffffffffffffffffffffffffffffff168173ffffffffffffffffffffffffffffffffffffffff167f8be0079c531659141344cd1fd0a4f28419497f9722a3daafe3b4186f6b6457e060405160405180910390a35050565b600033905090565b600080fd5b600073ffffffffffffffffffffffffffffffffffffffff82169050919050565b6000610b4b82610b20565b9050919050565b610b5b81610b40565b8114610b6657600080fd5b50565b600081359050610b7881610b52565b92915050565b600060208284031215610b9457610b93610b1b565b5b6000610ba284828501610b69565b91505092915050565b6000819050919050565b610bbe81610bab565b82525050565b6000602082019050610bd96000830184610bb5565b92915050565b610be881610bab565b8114610bf357600080fd5b50565b600081359050610c0581610bdf565b92915050565b60008060408385031215610c2257610c21610b1b565b5b6000610c3085828601610bf6565b9250506020610c4185828601610b69565b9150509250929050565b600060208284031215610c6157610c60610b1b565b5b6000610c6f84828501610bf6565b91505092915050565b610c8181610b40565b82525050565b6000602082019050610c9c6000830184610c78565b92915050565b6000819050919050565b6000610cc7610cc2610cbd84610b20565b610ca2565b610b20565b9050919050565b6000610cd982610cac565b9050919050565b6000610ceb82610cce565b9050919050565b610cfb81610ce0565b82525050565b6000602082019050610d166000830184610cf2565b92915050565b600082825260208201905092915050565b7f416d6f756e742073686f756c642062652067726561746572207468616e207a6560008201527f726f000000000000000000000000000000000000000000000000000000000000602082015250565b6000610d89602283610d1c565b9150610d9482610d2d565b604082019050919050565b60006020820190508181036000830152610db881610d7c565b9050919050565b7f496e73756666696369656e742062616c616e6365000000000000000000000000600082015250565b6000610df5601483610d1c565b9150610e0082610dbf565b602082019050919050565b60006020820190508181036000830152610e2481610de8565b9050919050565b7f4e487b7100000000000000000000000000000000000000000000000000000000600052601160045260246000fd5b6000610e6582610bab565b9150610e7083610bab565b9250828203905081811115610e8857610e87610e2b565b5b92915050565b6000604082019050610ea36000830185610c78565b610eb06020830184610bb5565b9392505050565b60008115159050919050565b610ecc81610eb7565b8114610ed757600080fd5b50565b600081519050610ee981610ec3565b92915050565b600060208284031215610f0557610f04610b1b565b5b6000610f1384828501610eda565b91505092915050565b7f546f6b656e207472616e73666572206661696c65640000000000000000000000600082015250565b6000610f52601583610d1c565b9150610f5d82610f1c565b602082019050919050565b60006020820190508181036000830152610f8181610f45565b9050919050565b6000606082019050610f9d6000830186610c78565b610faa6020830185610c78565b610fb76040830184610bb5565b949350505050565b6000610fca82610bab565b9150610fd583610bab565b9250828201905080821115610fed57610fec610e2b565b5b92915050565b7f4f776e61626c653a206e6577206f776e657220697320746865207a65726f206160008201527f6464726573730000000000000000000000000000000000000000000000000000602082015250565b600061104f602683610d1c565b915061105a82610ff3565b604082019050919050565b6000602082019050818103600083015261107e81611042565b9050919050565b7f4f776e61626c653a2063616c6c6572206973206e6f7420746865206f776e6572600082015250565b60006110bb602083610d1c565b91506110c682611085565b602082019050919050565b600060208201905081810360008301526110ea816110ae565b905091905056fea264697066735822122066203d3339c213b5fe4127561c9a8badb95b5c196f4adb8ad9272f969286e59364736f6c63430008140033",
  "immutableReferences": {},
  "source": "// SPDX-License-Identifier: MIT\npragma solidity ^0.8.0;\n\n// Import the ERC20 interface\nimport \"@openzeppelin/contracts/token/ERC20/IERC20.sol\";\nimport \"@openzeppelin/contracts/access/Ownable.sol\";\n\ncontract DeepDiveHub is Ownable {\n    IERC20 public token;\n\n    mapping(address => uint256) public balances;\n\n    // Add indexed events for deposit, withdraw and admin withdraw\n\n    event Deposit(address indexed grantee, uint256 amount);\n    event Withdraw(address indexed grantee, uint256 amount);\n    event WithdrawToAdmin(address indexed grantee, uint256 amount);\n\n    constructor (address _tokenAddress) {\n        token = IERC20(_tokenAddress);\n    }\n\n    // Function to deposit tokens into the vault\n    function deposit(uint256 amount, address grantee) external {\n        require(amount > 0, \"Amount should be greater than zero\");\n        require(token.transferFrom(msg.sender, address(this), amount), \"Token transfer failed\");\n        balances[grantee] += amount;\n        emit Deposit(grantee, amount);\n    }\n\n    // Function to withdraw tokens from the vault\n    function withdraw(uint256 amount) external {\n        require(amount > 0, \"Amount should be greater than zero\");\n        require(balances[msg.sender] >= amount, \"Insufficient balance\");\n\n        balances[msg.sender] -= amount;\n        require(token.transfer(msg.sender, amount), \"Token transfer failed\");\n        emit Withdraw(msg.sender, amount);\n    }\n\n    function withdrawToAdmin(uint256 amount, address grantee) external onlyOwner {\n        require(amount > 0, \"Amount should be greater than zero\");\n        require(balances[grantee] >= amount, \"Insufficient balance\");\n\n        balances[grantee] -= amount;\n        require(token.transfer(msg.sender, amount), \"Token transfer failed\");\n        emit WithdrawToAdmin(grantee, amount);\n    }\n\n    // Function to check the balance of a given address\n    function getBalance(address account) external view returns (uint256) {\n        return balances[account];\n    }\n}",
  "sourcePath": "/home/menezes/oceano-be/oceano-contract/contracts/DeepDiveHub.sol",
  "compiler": {
    "name": "solc",
    "version": "0.8.20+commit.a1b79de6.Emscripten.clang"
  },
  "schemaVersion": "3.4.14",
  "updatedAt": "2023-08-06T18:13:51.508Z",
  "networkType": "ethereum",
  "devdoc": {
    "kind": "dev",
    "methods": {
      "owner()": {
        "details": "Returns the address of the current owner."
      },
      "renounceOwnership()": {
        "details": "Leaves the contract without owner. It will not be possible to call `onlyOwner` functions. Can only be called by the current owner. NOTE: Renouncing ownership will leave the contract without an owner, thereby disabling any functionality that is only available to the owner."
      },
      "transferOwnership(address)": {
        "details": "Transfers ownership of the contract to a new account (`newOwner`). Can only be called by the current owner."
      }
    },
    "version": 1
  },
  "userdoc": {
    "kind": "user",
    "methods": {},
    "version": 1
  }
}