{
  "contractName": "DeepDiveHub",
  "abi": [
    {
      "inputs": [
        {
          "internalType": "address",
          "name": "_tokenAddress",
          "type": "address"
        }
      ],
      "stateMutability": "nonpayable",
      "type": "constructor"
    },
    {
      "anonymous": false,
      "inputs": [
        {
          "indexed": true,
          "internalType": "address",
          "name": "grantee",
          "type": "address"
        },
        {
          "indexed": false,
          "internalType": "uint256",
          "name": "amount",
          "type": "uint256"
        }
      ],
      "name": "Deposit",
      "type": "event"
    },
    {
      "anonymous": false,
      "inputs": [
        {
          "indexed": true,
          "internalType": "address",
          "name": "previousOwner",
          "type": "address"
        },
        {
          "indexed": true,
          "internalType": "address",
          "name": "newOwner",
          "type": "address"
        }
      ],
      "name": "OwnershipTransferred",
      "type": "event"
    },
    {
      "anonymous": false,
      "inputs": [
        {
          "indexed": true,
          "internalType": "address",
          "name": "grantee",
          "type": "address"
        },
        {
          "indexed": false,
          "internalType": "uint256",
          "name": "amount",
          "type": "uint256"
        }
      ],
      "name": "Withdraw",
      "type": "event"
    },
    {
      "anonymous": false,
      "inputs": [
        {
          "indexed": true,
          "internalType": "address",
          "name": "grantee",
          "type": "address"
        },
        {
          "indexed": false,
          "internalType": "uint256",
          "name": "amount",
          "type": "uint256"
        }
      ],
      "name": "WithdrawToAdmin",
      "type": "event"
    },
    {
      "inputs": [
        {
          "internalType": "address",
          "name": "",
          "type": "address"
        }
      ],
      "name": "balances",
      "outputs": [
        {
          "internalType": "uint256",
          "name": "",
          "type": "uint256"
        }
      ],
      "stateMutability": "view",
      "type": "function"
    },
    {
      "inputs": [],
      "name": "owner",
      "outputs": [
        {
          "internalType": "address",
          "name": "",
          "type": "address"
        }
      ],
      "stateMutability": "view",
      "type": "function"
    },
    {
      "inputs": [],
      "name": "renounceOwnership",
      "outputs": [],
      "stateMutability": "nonpayable",
      "type": "function"
    },
    {
      "inputs": [],
      "name": "token",
      "outputs": [
        {
          "internalType": "contract IERC20",
          "name": "",
          "type": "address"
        }
      ],
      "stateMutability": "view",
      "type": "function"
    },
    {
      "inputs": [
        {
          "internalType": "address",
          "name": "newOwner",
          "type": "address"
        }
      ],
      "name": "transferOwnership",
      "outputs": [],
      "stateMutability": "nonpayable",
      "type": "function"
    },
    {
      "inputs": [
        {
          "internalType": "uint256",
          "name": "amount",
          "type": "uint256"
        },
        {
          "internalType": "address",
          "name": "grantee",
          "type": "address"
        }
      ],
      "name": "deposit",
      "outputs": [],
      "stateMutability": "nonpayable",
      "type": "function"
    },
    {
      "inputs": [
        {
          "internalType": "uint256",
          "name": "amount",
          "type": "uint256"
        }
      ],
      "name": "withdraw",
      "outputs": [],
      "stateMutability": "nonpayable",
      "type": "function"
    },
    {
      "inputs": [
        {
          "internalType": "uint256",
          "name": "amount",
          "type": "uint256"
        },
        {
          "internalType": "address",
          "name": "grantee",
          "type": "address"
        }
      ],
      "name": "withdrawToAdmin",
      "outputs": [],
      "stateMutability": "nonpayable",
      "type": "function"
    },
    {
      "inputs": [
        {
          "internalType": "address",
          "name": "account",
          "type": "address"
        }
      ],
      "name": "getBalance",
      "outputs": [
        {
          "internalType": "uint256",
          "name": "",
          "type": "uint256"
        }
      ],
      "stateMutability": "view",
      "type": "function"
    }
  ],
  "bytecode": "0x60806040523480156200001157600080fd5b506040516200144b3803806200144b8339818101604052810190620000379190620001ee565b6200006962000054620000b8640100000000026401000000009004565b620000c0640100000000026401000000009004565b6001808190555080600260006101000a81548173ffffffffffffffffffffffffffffffffffffffff021916908373ffffffffffffffffffffffffffffffffffffffff1602179055505062000220565b600033905090565b60008060009054906101000a900473ffffffffffffffffffffffffffffffffffffffff169050816000806101000a81548173ffffffffffffffffffffffffffffffffffffffff021916908373ffffffffffffffffffffffffffffffffffffffff1602179055508173ffffffffffffffffffffffffffffffffffffffff168173ffffffffffffffffffffffffffffffffffffffff167f8be0079c531659141344cd1fd0a4f28419497f9722a3daafe3b4186f6b6457e060405160405180910390a35050565b600080fd5b600073ffffffffffffffffffffffffffffffffffffffff82169050919050565b6000620001b68262000189565b9050919050565b620001c881620001a9565b8114620001d457600080fd5b50565b600081519050620001e881620001bd565b92915050565b60006020828403121562000207576200020662000184565b5b60006200021784828501620001d7565b91505092915050565b61121b80620002306000396000f3fe608060405234801561001057600080fd5b50600436106100b0576000357c010000000000000000000000000000000000000000000000000000000090048063715018a611610083578063715018a6146101395780638da5cb5b14610143578063f2fde38b14610161578063f8b2cb4f1461017d578063fc0c546a146101ad576100b0565b806327e235e3146100b55780632db57ba8146100e55780632e1a7d4d146101015780636e553f651461011d575b600080fd5b6100cf60048036038101906100ca9190610c06565b6101cb565b6040516100dc9190610c4c565b60405180910390f35b6100ff60048036038101906100fa9190610c93565b6101e3565b005b61011b60048036038101906101169190610cd3565b610463565b005b61013760048036038101906101329190610c93565b6106da565b005b6101416108d2565b005b61014b6108e6565b6040516101589190610d0f565b60405180910390f35b61017b60048036038101906101769190610c06565b61090f565b005b61019760048036038101906101929190610c06565b610992565b6040516101a49190610c4c565b60405180910390f35b6101b56109db565b6040516101c29190610d89565b60405180910390f35b60036020528060005260406000206000915090505481565b6101eb610a01565b6101f3610a7f565b60008211610236576040517f08c379a000000000000000000000000000000000000000000000000000000000815260040161022d90610e27565b60405180910390fd5b81600360008373ffffffffffffffffffffffffffffffffffffffff1673ffffffffffffffffffffffffffffffffffffffff1681526020019081526020016000205410156102b8576040517f08c379a00000000000000000000000000000000000000000000000000000000081526004016102af90610e93565b60405180910390fd5b81600360008373ffffffffffffffffffffffffffffffffffffffff1673ffffffffffffffffffffffffffffffffffffffff16815260200190815260200160002060008282546103079190610ee2565b92505081905550600260009054906101000a900473ffffffffffffffffffffffffffffffffffffffff1673ffffffffffffffffffffffffffffffffffffffff1663a9059cbb33846040518363ffffffff167c0100000000000000000000000000000000000000000000000000000000028152600401610387929190610f16565b6020604051808303816000875af11580156103a6573d6000803e3d6000fd5b505050506040513d601f19601f820116820180604052508101906103ca9190610f77565b610409576040517f08c379a000000000000000000000000000000000000000000000000000000000815260040161040090610ff0565b60405180910390fd5b8073ffffffffffffffffffffffffffffffffffffffff167fbb05458e7da2c1051d789388f783450df1c81402cfb52fb5ea8928f7ba66dfa88360405161044f9190610c4c565b60405180910390a261045f610ace565b5050565b61046b610a7f565b600081116104ae576040517f08c379a00000000000000000000000000000000000000000000000000000000081526004016104a590610e27565b60405180910390fd5b80600360003373ffffffffffffffffffffffffffffffffffffffff1673ffffffffffffffffffffffffffffffffffffffff168152602001908152602001600020541015610530576040517f08c379a000000000000000000000000000000000000000000000000000000000815260040161052790610e93565b60405180910390fd5b80600360003373ffffffffffffffffffffffffffffffffffffffff1673ffffffffffffffffffffffffffffffffffffffff168152602001908152602001600020600082825461057f9190610ee2565b92505081905550600260009054906101000a900473ffffffffffffffffffffffffffffffffffffffff1673ffffffffffffffffffffffffffffffffffffffff1663a9059cbb33836040518363ffffffff167c01000000000000000000000000000000000000000000000000000000000281526004016105ff929190610f16565b6020604051808303816000875af115801561061e573d6000803e3d6000fd5b505050506040513d601f19601f820116820180604052508101906106429190610f77565b610681576040517f08c379a000000000000000000000000000000000000000000000000000000000815260040161067890610ff0565b60405180910390fd5b3373ffffffffffffffffffffffffffffffffffffffff167f884edad9ce6fa2440d8a54cc123490eb96d2768479d49ff9c7366125a9424364826040516106c79190610c4c565b60405180910390a26106d7610ace565b50565b6106e2610a7f565b60008211610725576040517f08c379a000000000000000000000000000000000000000000000000000000000815260040161071c90610e27565b60405180910390fd5b600260009054906101000a900473ffffffffffffffffffffffffffffffffffffffff1673ffffffffffffffffffffffffffffffffffffffff166323b872dd3330856040518463ffffffff167c01000000000000000000000000000000000000000000000000000000000281526004016107a093929190611010565b6020604051808303816000875af11580156107bf573d6000803e3d6000fd5b505050506040513d601f19601f820116820180604052508101906107e39190610f77565b610822576040517f08c379a000000000000000000000000000000000000000000000000000000000815260040161081990610ff0565b60405180910390fd5b81600360008373ffffffffffffffffffffffffffffffffffffffff1673ffffffffffffffffffffffffffffffffffffffff16815260200190815260200160002060008282546108719190611047565b925050819055508073ffffffffffffffffffffffffffffffffffffffff167fe1fffcc4923d04b559f4d29a8bfc6cda04eb5b0d3c460751c2402c5c5cc9109c836040516108be9190610c4c565b60405180910390a26108ce610ace565b5050565b6108da610a01565b6108e46000610ad7565b565b60008060009054906101000a900473ffffffffffffffffffffffffffffffffffffffff16905090565b610917610a01565b600073ffffffffffffffffffffffffffffffffffffffff168173ffffffffffffffffffffffffffffffffffffffff1603610986576040517f08c379a000000000000000000000000000000000000000000000000000000000815260040161097d906110ed565b60405180910390fd5b61098f81610ad7565b50565b6000600360008373ffffffffffffffffffffffffffffffffffffffff1673ffffffffffffffffffffffffffffffffffffffff168152602001908152602001600020549050919050565b600260009054906101000a900473ffffffffffffffffffffffffffffffffffffffff1681565b610a09610b9b565b73ffffffffffffffffffffffffffffffffffffffff16610a276108e6565b73ffffffffffffffffffffffffffffffffffffffff1614610a7d576040517f08c379a0000000000000000000000000000000000000000000000000000000008152600401610a7490611159565b60405180910390fd5b565b600260015403610ac4576040517f08c379a0000000000000000000000000000000000000000000000000000000008152600401610abb906111c5565b60405180910390fd5b6002600181905550565b60018081905550565b60008060009054906101000a900473ffffffffffffffffffffffffffffffffffffffff169050816000806101000a81548173ffffffffffffffffffffffffffffffffffffffff021916908373ffffffffffffffffffffffffffffffffffffffff1602179055508173ffffffffffffffffffffffffffffffffffffffff168173ffffffffffffffffffffffffffffffffffffffff167f8be0079c531659141344cd1fd0a4f28419497f9722a3daafe3b4186f6b6457e060405160405180910390a35050565b600033905090565b600080fd5b600073ffffffffffffffffffffffffffffffffffffffff82169050919050565b6000610bd382610ba8565b9050919050565b610be381610bc8565b8114610bee57600080fd5b50565b600081359050610c0081610bda565b92915050565b600060208284031215610c1c57610c1b610ba3565b5b6000610c2a84828501610bf1565b91505092915050565b6000819050919050565b610c4681610c33565b82525050565b6000602082019050610c616000830184610c3d565b92915050565b610c7081610c33565b8114610c7b57600080fd5b50565b600081359050610c8d81610c67565b92915050565b60008060408385031215610caa57610ca9610ba3565b5b6000610cb885828601610c7e565b9250506020610cc985828601610bf1565b9150509250929050565b600060208284031215610ce957610ce8610ba3565b5b6000610cf784828501610c7e565b91505092915050565b610d0981610bc8565b82525050565b6000602082019050610d246000830184610d00565b92915050565b6000819050919050565b6000610d4f610d4a610d4584610ba8565b610d2a565b610ba8565b9050919050565b6000610d6182610d34565b9050919050565b6000610d7382610d56565b9050919050565b610d8381610d68565b82525050565b6000602082019050610d9e6000830184610d7a565b92915050565b600082825260208201905092915050565b7f416d6f756e742073686f756c642062652067726561746572207468616e207a6560008201527f726f000000000000000000000000000000000000000000000000000000000000602082015250565b6000610e11602283610da4565b9150610e1c82610db5565b604082019050919050565b60006020820190508181036000830152610e4081610e04565b9050919050565b7f496e73756666696369656e742062616c616e6365000000000000000000000000600082015250565b6000610e7d601483610da4565b9150610e8882610e47565b602082019050919050565b60006020820190508181036000830152610eac81610e70565b9050919050565b7f4e487b7100000000000000000000000000000000000000000000000000000000600052601160045260246000fd5b6000610eed82610c33565b9150610ef883610c33565b9250828203905081811115610f1057610f0f610eb3565b5b92915050565b6000604082019050610f2b6000830185610d00565b610f386020830184610c3d565b9392505050565b60008115159050919050565b610f5481610f3f565b8114610f5f57600080fd5b50565b600081519050610f7181610f4b565b92915050565b600060208284031215610f8d57610f8c610ba3565b5b6000610f9b84828501610f62565b91505092915050565b7f546f6b656e207472616e73666572206661696c65640000000000000000000000600082015250565b6000610fda601583610da4565b9150610fe582610fa4565b602082019050919050565b6000602082019050818103600083015261100981610fcd565b9050919050565b60006060820190506110256000830186610d00565b6110326020830185610d00565b61103f6040830184610c3d565b949350505050565b600061105282610c33565b915061105d83610c33565b925082820190508082111561107557611074610eb3565b5b92915050565b7f4f776e61626c653a206e6577206f776e657220697320746865207a65726f206160008201527f6464726573730000000000000000000000000000000000000000000000000000602082015250565b60006110d7602683610da4565b91506110e28261107b565b604082019050919050565b60006020820190508181036000830152611106816110ca565b9050919050565b7f4f776e61626c653a2063616c6c6572206973206e6f7420746865206f776e6572600082015250565b6000611143602083610da4565b915061114e8261110d565b602082019050919050565b6000602082019050818103600083015261117281611136565b9050919050565b7f5265656e7472616e637947756172643a207265656e7472616e742063616c6c00600082015250565b60006111af601f83610da4565b91506111ba82611179565b602082019050919050565b600060208201905081810360008301526111de816111a2565b905091905056fea2646970667358221220fb88a9a6738054c08ecedf31eb62b6f364ae83063533cb55edf437e0002cc60c64736f6c63430008140033",
  "immutableReferences": {},
  "source": "// SPDX-License-Identifier: MIT\npragma solidity ^0.8.0;\n\n// Import the ERC20 interface\nimport \"@openzeppelin/contracts/token/ERC20/IERC20.sol\";\nimport \"@openzeppelin/contracts/access/Ownable.sol\";\n// import reentrancy guard\nimport \"@openzeppelin/contracts/security/ReentrancyGuard.sol\";\n\ncontract DeepDiveHub is Ownable, ReentrancyGuard {\n    IERC20 public token;\n\n    mapping(address => uint256) public balances;\n\n    // Add indexed events for deposit, withdraw and admin withdraw\n\n    event Deposit(address indexed grantee, uint256 amount);\n    event Withdraw(address indexed grantee, uint256 amount);\n    event WithdrawToAdmin(address indexed grantee, uint256 amount);\n\n    constructor (address _tokenAddress) {\n        token = IERC20(_tokenAddress);\n    }\n\n    // Function to deposit tokens into the vault\n    function deposit(uint256 amount, address grantee) external nonReentrant {\n        require(amount > 0, \"Amount should be greater than zero\");\n        require(token.transferFrom(msg.sender, address(this), amount), \"Token transfer failed\");\n        balances[grantee] += amount;\n        emit Deposit(grantee, amount);\n    }\n\n    // Function to withdraw tokens from the vault\n    function withdraw(uint256 amount) external nonReentrant {\n        require(amount > 0, \"Amount should be greater than zero\");\n        require(balances[msg.sender] >= amount, \"Insufficient balance\");\n\n        balances[msg.sender] -= amount;\n        require(token.transfer(msg.sender, amount), \"Token transfer failed\");\n        emit Withdraw(msg.sender, amount);\n    }\n\n    function withdrawToAdmin(uint256 amount, address grantee) external onlyOwner nonReentrant {\n        require(amount > 0, \"Amount should be greater than zero\");\n        require(balances[grantee] >= amount, \"Insufficient balance\");\n\n        balances[grantee] -= amount;\n        require(token.transfer(msg.sender, amount), \"Token transfer failed\");\n        emit WithdrawToAdmin(grantee, amount);\n    }\n\n    // Function to check the balance of a given address\n    function getBalance(address account) external view returns (uint256) {\n        return balances[account];\n    }\n}",
  "sourcePath": "/home/menezes/oceano-be/oceano-contract/contracts/DeepDiveHub.sol",
  "compiler": {
    "name": "solc",
    "version": "0.8.20+commit.a1b79de6.Emscripten.clang"
  },
  "schemaVersion": "3.4.14",
  "updatedAt": "2023-08-06T21:20:03.915Z",
  "devdoc": {
    "kind": "dev",
    "methods": {
      "owner()": {
        "details": "Returns the address of the current owner."
      },
      "renounceOwnership()": {
        "details": "Leaves the contract without owner. It will not be possible to call `onlyOwner` functions. Can only be called by the current owner. NOTE: Renouncing ownership will leave the contract without an owner, thereby disabling any functionality that is only available to the owner."
      },
      "transferOwnership(address)": {
        "details": "Transfers ownership of the contract to a new account (`newOwner`). Can only be called by the current owner."
      }
    },
    "version": 1
  },
  "userdoc": {
    "kind": "user",
    "methods": {},
    "version": 1
  }
}